:10000000000C0020D5000000430100009513000003
:1000100000000000000000000000000000000000E0
:100020000000000000000000000000004701000088
:100030000000000000000000490100004B0100002A
:100040004F010000570100005F0100006701000040
:100050006F010000770100007F01000087010000B0
:100060008F010000970100009F010000A701000020
:10007000AF010000B7010000BF010000C701000090
:10008000490F0000D7010000DF010000E701000078
:10009000EF010000F7010000FF010000070200006F
:1000A0000F020000170200001F02000027020000DC
:1000B000C10A0000370200003F02000047020000B2
:1000C000D846000080FCFF1F3C000000BCFCFF1F66
:1000D0004002000010B572B602F014FD0D4B07E0AF
:1000E000186859681C000C349A6800F019F823004D
:1000F000094A9342F4D306E018681C000834596892
:1001000000F017F82300054A9342F5D362B603F0D6
:1001100002FFFEE7C0000000CC000000D400000099
:1001200010B5002302E010C810C104339342FAD383
:1001300010BD002302E0002204C004338B42FAD336
:100140007047FEE7FEE7FEE7FEE7FEE7FEE710B5D5
:10015000FFF7FCFF10BD10B5FFF7F8FF10BD10B59D
:10016000FFF7F4FF10BD10B5FFF7F0FF10BD10B59D
:10017000FFF7ECFF10BD10B5FFF7E8FF10BD10B59D
:10018000FFF7E4FF10BD10B5FFF7E0FF10BD10B59D
:1001900002F0B2FA10BD10B502F0BEFA10BD10B5F3
:1001A000FFF7D4FF10BD10B5FFF7D0FF10BD10B59D
:1001B00002F0C2FA10BD10B5FFF7C8FF10BD10B5B0
:1001C000FFF7C4FF10BD10B5FFF7C0FF10BD10B59D
:1001D000FFF7BCFF10BD10B5FFF7B8FF10BD10B59D
:1001E000FFF7B4FF10BD10B5FFF7B0FF10BD10B59D
:1001F000FFF7ACFF10BD10B5FFF7A8FF10BD10B59D
:10020000FFF7A4FF10BD10B5FFF7A0FF10BD10B59C
:10021000FFF79CFF10BD10B5FFF798FF10BD10B59C
:10022000FFF794FF10BD10B5FFF790FF10BD10B59C
:10023000FFF78CFF10BD10B5FFF788FF10BD10B59C
:10024000FFF784FF10BD10B5FFF780FF10BDFFFF63
:10025000FFFFFFFFFFFFFFFFFFFFFFFFFFFFFFFFAE
:10026000FFFFFFFFFFFFFFFFFFFFFFFFFFFFFFFF9E
:10027000FFFFFFFFFFFFFFFFFFFFFFFFFFFFFFFF8E
:10028000FFFFFFFFFFFFFFFFFFFFFFFFFFFFFFFF7E
:10029000FFFFFFFFFFFFFFFFFFFFFFFFFFFFFFFF6E
:1002A000FFFFFFFFFFFFFFFFFFFFFFFFFFFFFFFF5E
:1002B000FFFFFFFFFFFFFFFFFFFFFFFFFFFFFFFF4E
:1002C000FFFFFFFFFFFFFFFFFFFFFFFFFFFFFFFF3E
:1002D000FFFFFFFFFFFFFFFFFFFFFFFFFFFFFFFF2E
:1002E000FFFFFFFFFFFFFFFFFFFFFFFFFFFFFFFF1E
:1002F000FFFFFFFFFFFFFFFFFFFFFFFFFFFFFFFF0E
:10030000FFFFFFFFFFFFFFFFFFFFFFFFFFFFFFFFFD
:10031000FFFFFFFFFFFFFFFFFFFFFFFFFFFFFFFFED
:10032000FFFFFFFFFFFFFFFFFFFFFFFFFFFFFFFFDD
:10033000FFFFFFFFFFFFFFFFFFFFFFFFFFFFFFFFCD
:10034000FFFFFFFFFFFFFFFFFFFFFFFFFFFFFFFFBD
:10035000FFFFFFFFFFFFFFFFFFFFFFFFFFFFFFFFAD
:10036000FFFFFFFFFFFFFFFFFFFFFFFFFFFFFFFF9D
:10037000FFFFFFFFFFFFFFFFFFFFFFFFFFFFFFFF8D
:10038000FFFFFFFFFFFFFFFFFFFFFFFFFFFFFFFF7D
:10039000FFFFFFFFFFFFFFFFFFFFFFFFFFFFFFFF6D
:1003A000FFFFFFFFFFFFFFFFFFFFFFFFFFFFFFFF5D
:1003B000FFFFFFFFFFFFFFFFFFFFFFFFFFFFFFFF4D
:1003C000FFFFFFFFFFFFFFFFFFFFFFFFFFFFFFFF3D
:1003D000FFFFFFFFFFFFFFFFFFFFFFFFFFFFFFFF2D
:1003E000FFFFFFFFFFFFFFFFFFFFFFFFFFFFFFFF1D
:1003F000FFFFFFFFFFFFFFFFFFFFFFFFFFFFFFFF0D
:10040000FFFFFFFFFFFFFFFFFFFFFFFFFED0FF0F1C
:1004100080B582B000AF0200FB1D1A70FB1D1B7877
:100420007F2B09D8FB1D1B781A001F231A40044B91
:10043000012191400A001A60C046BD4602B080BD4D
:1004400000E100E080B582B000AF102003F0FEF8BC
:10045000184B180001F0F8FA164B03225A70154B8E
:10046000154A1900100001F067FA134B0122002110
:10047000180003F088FA3B1D07225A703B1D0A2220
:100480009A703B1D0C4A1900100001F003FB0A4B47
:100490000221180003F0FFFA074B0821180003F0AF
:1004A000A4FA054B1021180003F0CAFAC046BD4655
:1004B00002B080BDBCFCFF1F0030074080B582B099
:1004C00000AF78603960074B180001F027FB3B68EC
:1004D0007A68F821C901034801F0F6FBC046BD4621
:1004E00002B080BDC4FCFF1FB0B500AF074B1800C1
:1004F00001F014FB064C8023DA00F823D9010348ED
:10050000230001F06FFBC046BD46B0BDC4FCFF1F19
:100510006B66656B90B583B000AF78607B68180040
:1005200001F01AFE7C68022001F008F80300104870
:100530001A00210001F092FD7B6800221A747B688A
:1005400000225A747B6801225A617B6801221A7664
:100550007B6824331A007B68DA617B6840221A6268
:100560007B680022DA60C046BD4603B090BDC0463D
:1005700000600640F0B5C64600B58AB000AF060080
:100580000800BA6119001F23FB18321C1A701C22C4
:10059000BB18021C1A801E26BB190A1C1A706B4657
:1005A0009846384B1B681800FFF7B4FFBB191B783F
:1005B0001A00013A7A62BB600022FA60B868F968F2
:1005C0000200520F0E00F6007E617E6916437E61C6
:1005D0000200D2003A613B6000227A603868796894
:1005E0000200520F0E00F50015430200D40007333D
:1005F000DB08DB006A46D31A9D466B4600333B623C
:100600001E243B191A78B9693B6A180003F08AFC6A
:100610001C4B1B681F217A1812781A74194B1B681F
:1006200000225A74174B1B6801221A76154B1B685F
:100630001C22BA1812885A61124B1B683A19127898
:100640001A62104B1B683A6ADA610E4B1B681B7CFE
:10065000532B04D00B4B1B681B7C572B03D1094B2E
:100660001B6802221A76074B1B680C33064A1900D6
:10067000100001F017FFC546C046BD460AB080BC59
:10068000B846F0BD80FCFF1F0060064090B583B007
:1006900000AF040008001100FB1D221C1A703B1D56
:1006A000021C1A80BB1D0A1C1A701E4B1B68180006
:1006B000FFF730FF1B4B1B68FA1D12781A74194B99
:1006C0001B6801225A74174B1B6801221A76154BBE
:1006D0001B683A1D12885A61124B1B68BA1D1278AA
:1006E0001A62104B1A680F4B1B682432DA610D4BEB
:1006F0001B681B7C532B04D00A4B1B681B7C572B9D
:1007000003D1084B1B6802221A76064B1B680C3378
:10071000054A1900100001F0C5FEC046BD4603B0F1
:1007200090BDC04680FCFF1F0060064080B500AF52
:10073000054B20221A70054B06221A61024B4222F9
:100740005A70C046BD4680BD00E0074000ED00E0A5
:1007500080B582B000AF0200FB1D1A70054AFB1D78
:100760001B781100180002F0CFFFC046BD4602B052
:1007700080BDC0462C04000080B584B000AF0200EC
:10078000FB1D1A70FB1D1B7802220021180002F0CD
:100790009EFF0F4B1B6824229B5C1A020C4B1B68AC
:1007A00025215B5CD318180003F093FC0022FE2384
:1007B0009B0502F085FD02000B001000190002F0FD
:1007C00041FE031CFB60FB68181CBD4604B080BDE5
:1007D00080FCFF1F90B583B000AF02003960FB1DA5
:1007E0001A70FB1D1B787F2B28D82F4AFB1D1B7806
:1007F0005BB29B08C0339B009B58FA1D1278110016
:1008000003220A40D200FF2191400A00D2431A403D
:1008100011003B689B01FF221A40FB1D1B7818004A
:1008200003230340DB009A401F48FB1D1B785BB28B
:100830009B080A43C0339B001A5031E01B4AFB1D42
:100840001B7819000F230B40083B9B0806339B00C5
:10085000D31804331B68FA1D1278110003220A40D2
:10086000D200FF2191400A00D2431A4011003B6898
:100870009B01FF221A40FB1D1B7818000323034035
:10088000DB009A400948FB1D1B781C000F23234006
:10089000083B9B080A4306339B00C31804331A60C5
:1008A000C046BD4603B090BD00E100E000ED00E0B1
:1008B00090B587B002AF02F091F802F00BF800F0AB
:1008C000B3FCFFF733FF794B6A461969116018686A
:1008D00059689A68DB6803F00BF8744B6A46596AEA
:1008E000116058699969DA691B6A03F001F80023FD
:1008F0003B600023FB6029E0FB68F822520194462C
:1009000063449B00180002F0B9FE03003B603B68A3
:10091000013318D03B681B0CD8B26449FA68130045
:100920009B009B189B00CB180133021C1A703B687C
:1009300098B25E49FA6813009B009B189B00CB1885
:100940000233021C1A80FB680133FB60FB68012B39
:10095000D2DD574B180002F091FE03003B603B686C
:10096000013324D03B681B0C180003F00FFC021C61
:100970004E4B9A604D4B9B684E49181C02F0F2FD9D
:10098000031C1A1C494B9A603B681B041B0C180083
:1009900003F0FCFB021C454BDA61444BDB69454923
:1009A000181C02F0DFFD031C1A1C404BDA61424B9D
:1009B00002221A7000F07CFC404B0121180002F06A
:1009C000D0FE0023BB6002E0BB680133BB60BB68A4
:1009D000C72BF9D9394B0121180002F0B6FE364B6E
:1009E0001B78022BFBD100237B605BE02F497A68E8
:1009F00013009B009B189B00CB1802331B88002B15
:100A00004DD02A497A6813009B009B189B005B5CC1
:100A1000002B44D025497A6813009B009B189B004B
:100A2000CB1804331B781800FFF7A6FE1F497A681D
:100A300013009B009B189B00CB1808331B68191CE4
:100A400003F0AAFB031E15D0184C7A6813009B0014
:100A50009B189B001021E21851186A460968116022
:100A60001859E2185168E2189268E318DB6802F03E
:100A70003FFF14E00D4C7A6813009B009B189B000D
:100A80001021E21851186A46096811601859E218D5
:100A90005168E2189268E318DB6802F00EFF7B6889
:100AA00001337B607B68012BA0DD98E788FCFF1F8A
:100AB000087C000000002041F9FEFF1F40F00F40BD
:100AC00090B593B002AF9D4B8021180002F055FE07
:100AD0009B4B1B78012B00D125E29A4B1B680333FB
:100AE00000D13BE1974B032252421A60964B002201
:100AF0001A60964B0A21180000F0FEFB0300FB6110
:100B0000924B9B7A1A06914BDB7A1B04D2188F4BBF
:100B10001B7B1B02D3188D4A527B9B18BB61FA6961
:100B2000BB699A4205D1BB69002B02D0BB69FF2B80
:100B300037D10023FB6322E0854B0121180002F02E
:100B400010FE0023BB6302E0BB6B0133BB63BA6BD7
:100B5000FA235B009A42F7D37D4B0121180002F083
:100B6000F4FD00237B6302E07B6B01337B637A6BD4
:100B7000FA235B009A42F7D3FB6B0133FB63FB6BF9
:100B8000022BD9DD00233B6307E0704A3B6BD3188F
:100B900000221A703B6B01333B633B6B0A2BF4DD85
:100BA000C2E10023FB6251E0FA6A13009B009B182C
:100BB000664AD05C6749FA6A13009B009B189B0049
:100BC000CB180133021C1A70FA6A13009B009B18A1
:100BD00001335E4AD35C9BB21B0299B2FA6A1300DE
:100BE0009B009B180233594AD35C9BB2CB1898B236
:100BF0005849FA6A13009B009B189B00CB180233DC
:100C0000021C1A80FA6A13009B009B1803334F4A98
:100C1000D35C1902FA6A13009B009B1804334B4AF9
:100C2000D35CCB180A21180003F0BAF903001800AE
:100C300003F0A0FA4749FA6A13009B009B189B0037
:100C4000CB1808331860FB6A0133FB62FB6A012B87
:100C5000AADD414BDB78DBB21A007F231340042B63
:100C600010D13D4B5B78DBB23B4A60218B43DBB25A
:100C70005370C046384BDB78DBB21A007F23134039
:100C8000012BF7D1FFF730FC304B1B781A042F4BA8
:100C90005B781B02D3182D4A92789B181A000C21FE
:100CA0007B181A60294B5B791A04284B9B791B022D
:100CB000D318264AD2799B181A007B185A60234B06
:100CC000DB781A06214B1B791B04D2181F4B1B7AA9
:100CD0001B02D3181D4A527A9B181A007B189A607F
:100CE0007B180C211800FFF7E9FB0023BB6207E02B
:100CF000164ABB6AD31800221A70BB6A0133BB6262
:100D0000BB6A0A2BF4DD124B0121180002F029FD09
:100D100000237B6202E07B6A01337B627A6AFA23FA
:100D2000DB009A42F7D30A4B0121180002F00DFDB7
:100D300000F0BEFA024B01221A70F5E000000440F8
:100D4000F9FEFF1F84FCFF1F7CFDFF1F5CFDFF1FE2
:100D500040F00F4088FCFF1F00E00740744B1B6809
:100D60005A1C734B1A60734B5B781A00704B1B68EC
:100D70009A421BDC6F4B1B78002B17D06D4B6A46D9
:100D800019691160186859689A68DB6802F0B0FD4B
:100D9000684B1B791800FFF7DBFC664B00221A70CA
:100DA000644B5B88013B9AB2624B5A80614B5B7D1E
:100DB0001A005F4B1B689A421BDC5E4B1B7D002BAD
:100DC00017D05C4B6A46596A116058699969DA69AB
:100DD0001B6A02F08DFD574B1B7E1800FFF7B8FC15
:100DE000544B00221A75534BDB8A013B9AB2514B8C
:100DF000DA82504B1B7801225340DBB2002B00D12A
:100E000092E04C4B1B7D01225340DBB2002B00D102
:100E10008AE000F059FA484B03221A70474BDB78FE
:100E2000DBB21A007F231340042B10D1434B5B78B5
:100E3000DBB2424A60218B43DBB25370C0463F4B6A
:100E4000DB78DBB21A007F231340012BF7D1FFF7C9
:100E50004BFB384B5B781B04364A52889B181A00B0
:100E60003B001A60334B5B7D1B04324AD28A9B18CD
:100E70001A003B005A602F4B9B683149181C02F046
:100E800011FB031C181C03F030F903009BB21C0477
:100E9000284BDB692A49181C02F004FB031C181CB0
:100EA00003F023F903009BB2E3181A003B009A6099
:100EB0003B000C211800FFF701FB204BDB78DBB275
:100EC0001A007F231340012B13D11C4B5B78DBB23C
:100ED00060229343DBB2194A40210B43DBB25370CB
:100EE000C046164BDB78DBB21A007F231340042B7D
:100EF000F7D1FFF7A7FA00211020FFF76BFC114B89
:100F00000121180002F02DFC00233B6202E03B6A45
:100F100001333B623B6AC72BF9D90A4B0121180008
:100F200002F013FC00E0C046BD4611B090BDC046C3
:100F30007CFDFF1F88FCFF1FF9FEFF1F00E007403C
:100F40000000204140F00F4090B583B002AF5B4BF2
:100F50001B78002B00D1ADE0594B0221180002F0A4
:100F60009AFD584B1B78002B0ED0564B1B785A1EFF
:100F70009341DBB201225340DBB21A1C0123134020
:100F8000DAB2504B1A7096E04E4B1B785A1E9341C2
:100F9000DBB201225340DBB21A1C01231340DAB248
:100FA000484B1A70484B1B685A1C2DD0002B44DA52
:100FB000DA1C02D002331AD03FE000F079F9434B3B
:100FC0006A4619691160186859689A68DB6802F006
:100FD0008FFC3E4B6A46596A116058699969DA6913
:100FE0001B6A02F085FC354B04221A705CE0384B1A
:100FF000180002F0D1FB03001A00364B1A6000F013
:1010000063F900F055F94FE0314B180002F0C4FBD2
:1010100003001A00304B1A602E4B1A682E4B1B68C7
:10102000D318002B00DA01335B101A002B4B1A6027
:1010300000F04AF900F03CF936E0254B180002F0C8
:10104000ABFB03001A00264B1A601F4B1B68002BDA
:1010500000DA0733DB101A00224B9B5C59B2204B9D
:1010600018681E4B1B680124984201DC00231C1CDD
:10107000E3B21C00144B1B681B48034004D5013B22
:101080000820404203430133180007231B1A9C40E9
:1010900023005BB20B435BB2D9B2124B995400F000
:1010A00013F900F005F9C046074B1B685A1C064BA4
:1010B0001A6000E0C046BD4601B090BDF9FEFF1FBA
:1010C00000300740F8FEFF1F84FCFF1F88FCFF1F55
:1010D0000000044070FDFF1F74FDFF1F6CFDFF1F2B
:1010E00078FDFF1F5CFDFF1F0700008080B582B008
:1010F00000AF0200FB1D1A70FB1D1B787F2B09D867
:10110000FB1D1B781A001F231A40044B012191403C
:101110000A001A60C046BD4602B080BD00E100E092
:1011200090B583B000AF02003960FB1D1A70FB1D43
:101130001B787F2B28D82F4AFB1D1B785BB29B089E
:10114000C0339B009B58FA1D1278110003220A40FD
:10115000D200FF2191400A00D2431A4011003B689F
:101160009B01FF221A40FB1D1B781800032303403C
:10117000DB009A401F48FB1D1B785BB29B080A43AB
:10118000C0339B001A5031E01B4AFB1D1B7819002D
:101190000F230B40083B9B0806339B00D3180433F6
:1011A0001B68FA1D1278110003220A40D200FF21A9
:1011B00091400A00D2431A4011003B689B01FF2274
:1011C0001A40FB1D1B78180003230340DB009A40E4
:1011D0000948FB1D1B781C000F232340083B9B087C
:1011E0000A4306339B00C31804331A60C046BD4649
:1011F00003B090BD00E100E000ED00E080B582B0FA
:1012000000AF786039603B68002B03D1054B1800B4
:1012100001F084FC3B685A1E7B689A60C046BD465C
:1012200002B080BD84420000B0B500AF1E4B180074
:1012300001F01CFB1C4B1D4A1900100001F0CCFAF8
:10124000132000F07BF903001C0000231D00FA228C
:10125000920000232000290002F0BDFF02000B00D5
:1012600010001900FA229200002302F0D5FE0200BD
:101270000B000E4B11001800FFF7C0FF01211C20CE
:10128000FFF74EFF00F02CF8084B8021180002F009
:10129000C1FA1C2002F08FFA044B8021180002F0E2
:1012A000B9FAC046BD46B0BD80FDFF1F0000044036
:1012B00080B500AF034B180002F0BBFAC046BD4634
:1012C00080BDC0460000044080B500AF034B18004D
:1012D00002F0C5FAC046BD4680BDC04600000440CD
:1012E00080B500AF034B4021180002F07CFAC046E5
:1012F000BD4680BD0000044080B586B000AF786078
:101300000A00FB1C1A707B68FB6001235B427B6157
:101310001323FB1800221A702DE01323FB181B78EF
:10132000FA68D3181B781A007B6953407B6112233B
:10133000FB1800221A7013E07B690122134006D0CB
:101340007B695B101A00124B53407B6102E07B69A2
:101350005B107B611222BB18BA18127801321A7026
:101360001223FB181B78072BE6D913217B181A7858
:101370007B1801321A701323FA18FB1C12781B78A1
:101380009A42CAD37B69DB431800BD4606B080BDD4
:101390002083B8ED04207146084202D0EFF30980A3
:1013A00001E0EFF3088081690A88054B9A4200D07A
:1013B000FEE702318161202101607047C0460000D4
:1013C000ABBE000080B500AF064B1B68002B03D1FD
:1013D000054B180001F0A2FB024B1B681800BD462C
:1013E00080BDC04688FDFF1FF842000080B582B076
:1013F00000AFFFF7E7FF03007B607B68002B01D1A4
:101400007B6841E0224B1B78DBB2DB08DAB2FB1CC5
:1014100007210A401A70FB1C1B787A68DA40130017
:101420007B601B4B5B78DBB21B09DAB2BB1C032170
:101430000A401A70BB1C1B78002B23D0FB1C1B78A6
:10144000072B14D01BDC052B02DC002B03DA16E083
:10145000062B04D013E07B685B097B6013E07B689C
:101460001421180002F09FFD03007B600BE07B68F5
:101470000C21180002F097FD03007B6003E00023BD
:101480007B6000E0C0467B681800BD4602B080BDAE
:101490000040064080B500AF0B4B9B79DBB21A00D1
:1014A0000123134002D1094B1B6809E0084B1A685D
:1014B000054B1B7ADBB25B0807210B40DA401300B7
:1014C0001800BD4680BDC04600400640B0FCFF1F6E
:1014D000B4FCFF1F80B500AF074B9B79DBB21A004D
:1014E0001023134003D1FFF781FF030001E0034BFA
:1014F0001B681800BD4680BD00400640B0FCFF1FC1
:1015000080B500AF0A4B1B78DBB25BB2002B0ADA66
:10151000084B1B68002B03D1074B180001F0FEFAA3
:10152000044B1B6800E000231800BD4680BDC04688
:101530000050064088FDFF1F1843000080B584B0AE
:1015400000AF0200FB1D1A70FB1D1B78132B47D840
:101550009A00274BD3181B689F4600F061F8254A74
:10156000254BD3581B0F0F2213400133190002F0F3
:101570001AFD0300FB6036E000F052F81D4A1E4BD6
:10158000D3581B0F0F2213400133190002F00BFD3B
:101590000300FB60174A184BD3581B0C072213405B
:1015A00001331900F86802F0FEFC0300FB601AE04A
:1015B00002F0B9F90300FB6015E0FFF7A1FF03009B
:1015C000FB6010E000F098F80300FB600BE000F017
:1015D00057F80300FB6006E0FA239B00FB6002E083
:1015E0000023FB60C046FB681800BD4604B080BD08
:1015F00038430000007004404410000080B582B001
:1016000000AF786004497B681B68044A8B50C04671
:10161000BD4602B080BDC0460070044044100000CA
:1016200080B582B000AF154B9B79DBB29B080322DB
:1016300013403B603B68022B13D03B68022B15D84C
:101640003B68002B03D03B68012B05D00EE000F077
:1016500017F803007B600CE0FFF71CFF03007B60C2
:1016600007E0FFF7AFFE03007B6002E000237B6032
:10167000C0467B681800BD4602B080BD00400640F1
:1016800080B582B000AF1A4B5B78DBB21A00022340
:10169000134001D0002326E0FFF71CFF03007B600E
:1016A0007B68002B01D17B681DE0114BDB78DBB23E
:1016B0005B09DAB2FB1C03210A401A700C4BDB7881
:1016C000DBB2DB09DAB2BB1C01210A401A70FB1C39
:1016D0001978BB1C1A78074B49008A185200D35A54
:1016E0001A007B6853431800BD4602B080BDC04657
:1016F000004006408843000080B500AF074B1B78D0
:10170000DBB21A000223134001D1002302E0FFF7ED
:10171000C1FE03001800BD4680BDC0460040064023
:1017200090B585B000AF040008001100FB1D221C1D
:101730001A70BB1D021C1A707B1D0A1C1A70404BCC
:101740009B79DBB29B0803221340FB603C4B9B79E7
:10175000DAB20B203B1801210A401A70384B1B7A71
:10176000DBB25B08DAB20A243B1907210A401A707F
:101770007A1D3B1912781B789A422ED03B181B78A1
:10178000012B19D1FB68012B06D02D4B1B78DBB246
:101790001A00022313400FD0294B5B78DBB2284A92
:1017A00001218B43DBB25370C046254B9B79DBB2E2
:1017B0001A0001231340F8D1214B1B7ADBB22F22F0
:1017C0009343DAB27B1D1B78DB18DBB20E210B4092
:1017D000DBB21B491343DBB20B72194B5B78DBB2F4
:1017E00001229343DAB2BB1D1B7801210B40DBB20F
:1017F00013491343DBB24B70114B1B78DBB203224E
:101800009343DAB20E49FB1D1B781343DBB20B7016
:10181000FB68012B04D0FB1D1B78022213400AD069
:10182000C046074B9B79DBB21A0001231A40BB1D4F
:101830001B789A42F5D100231800BD4605B090BD33
:101840000040064090B583B000AF040008001100CE
:10185000FB1D221C1A70BB1D021C1A707B1D0A1C6A
:101860001A70FB1D1A78BB1D19787B1D1B78180098
:10187000FFF756FF104B1B78DBB23F221340DBB261
:101880000D4A40210B43DBB21370C0460A4B9B79D3
:10189000DBB29B0803221340012BF7D1064B5B7888
:1018A000DBB2054A02210B43DBB253700023180060
:1018B000BD4603B090BDC0460040064080B584B030
:1018C00000AF78607B681B0C084A94466344FB6059
:1018D000FB6819687B681B041B0C01229A40FB689B
:1018E0000A431A60C046BD4604B080BD0070044083
:1018F00080B584B000AF78600023FB6006E00C4A3E
:101900007B68934206D0FB680133FB60FB68002BC9
:10191000F5D000E0C046FB68002B03D0054B180053
:1019200001F0FCF8FB681800BD4604B080BDC0465D
:10193000003007409843000080B584B000AF786065
:1019400039603B68002B03D13D4B180001F0E6F8ED
:101950007B681800FFF7CCFF3A4B1800FFF7AEFF8B
:101960007B680021180001F0EEFF7B685B78DAB23B
:101970000F203B181E218A431A703B689B78002B6E
:1019800005D03B183A18127810210A431A703B68A8
:10199000DB78002B06D00F22BB18BA18127808216A
:1019A0000A431A703B681B79002B06D00F22BB1824
:1019B000BA18127804210A431A703B685B79002B2D
:1019C00006D00F22BB18BA18127802210A431A70E7
:1019D0003B689B79002B07D00F22BB18BA181278EE
:1019E00020210A431A7006E00F22BB18BA18127899
:1019F00020218A431A707B680F203A1812785A7097
:101A00007B681B78DAB23B1803218A431A703B6863
:101A10005B7803221340D9B23B183A1812780A4374
:101A20001A707B683A1812781A703B681A787B68CB
:101A30001100180001F087FFC046BD4604B080BD0C
:101A4000CC4300001300341080B582B000AF786042
:101A50007B68002B03D10E4B180001F05FF87B6808
:101A600001221A707B6800225A707B6800229A70EB
:101A70007B680022DA707B6800221A717B68002282
:101A80005A717B6800229A71C046BD4602B080BD83
:101A9000EC43000080B584B000AF786039603B68EB
:101AA000002B03D11C4B180001F038F83B681B7861
:101AB000002B09D07B685B78DBB280225242134353
:101AC000DAB27B685A7007E07B685B78DBB27F2212
:101AD0001340DAB27B685A707B681B78DAB20F2049
:101AE0003B1870218A431A703B685B781B01DBB29C
:101AF00070221340D9B23B183A1812780A431A7070
:101B00007B683A1812781A703B689A787B689A70EA
:101B1000C046BD4604B080BD0C44000080B584B012
:101B200000AF78607B68002B01D1042349E0274A8D
:101B3000274BD3581B0EDAB20B203B180F210A405B
:101B40001A703B181B780F2B03D180231B02FB60FC
:101B500007E00B23FB181A781E4B5200D35A9B0246
:101B6000FB607B6800221A607B68FA685A607B68B9
:101B700001221A727B688022D200DA607B68002220
:101B80005A617B6800229A617B68180001F0F8FFB7
:101B9000031E0FD0104B00221A600F4B0F4A5A60E1
:101BA0000D4B0F4A9A607B680B4ADA617B6818001C
:101BB00001F09CFF7B6800221A627B6800225A6257
:101BC00000231800BD4604B080BDC046007004402C
:101BD0004C1000005444000014FEFF1F94FDFF1F32
:101BE000D4FDFF1F90B591B000AFF860B9607A6086
:101BF0003B6010243A19B968FB68180002F009F834
:101C00003B191B697A68B968F86801F0D4FF0300D2
:101C1000BB63BB6B002B01D0BB6B4FE03B68180074
:101C200000F04CF90300BB63BB6B002B01D0BB6B16
:101C300044E01022BB181B68BB60BB185B687B6369
:101C4000BA687B68D318013BFB63FB6B796B1800A8
:101C500002F0A9F90B1E0BD0796BF86B02F0A3F917
:101C6000030001333B633B6B7A6B5343013BFB63E4
:101C7000FB680021180001F068FF14E0BB681B023C
:101C80001A0A104B902109050A431A60FB681800D4
:101C900000F0AAF80300BB63BB6B002B08D1BA6845
:101CA0007B6BD318BB60BA68FB6B9A42E6D900E045
:101CB000C046FB68180001F03BFFBB6B1800BD4637
:101CC00011B090BD0400024090B58FB000AFF86035
:101CD000B9607A603B607B68002B01D1042365E02A
:101CE00014243A19B968FB68180001F092FF3B19F7
:101CF000DB683A68B968F86801F05DFF03007B6350
:101D00007B6B002B01D07B6B50E01423FB181B680E
:101D1000BB60FB680021180001F017FF3CE07B6806
:101D20001A1D7A60234A04321B6813601423FB18BF
:101D3000DB68042B08D1BB681B021A0A1D4BC021AB
:101D4000C9040A431A6013E01423FB18DB68082B4C
:101D50000ED17B681A1D7A60164A08321B68136020
:101D6000BB681B021A0A134BE021C9040A431A601C
:101D7000FB68180000F038F803007B637B6B002BD6
:101D80000ED114217B18DB68BA68D318BB607B18AE
:101D9000DB683A68D31A3B603B68002BBFD100E098
:101DA000C046FB68180001F0C3FE7B6B1800BD46FF
:101DB0000FB090BD0400024080B582B000AF7860E3
:101DC00007497B680C22180002F0ACF87B680133ED
:101DD0001A00044B1A60C046BD4602B080BDC04622
:101DE0002C4400008CFDFF1F80B584B000AF7860EC
:101DF000194B70221A707B68180001F0C1FE0300B5
:101E0000FB60FB68002B01D0FB6821E0134B1B68D3
:101E1000114A10009847104A0B217B1812781A704B
:101E20007B181B782022134001D0672310E00B237E
:101E3000FB181B781022134001D0682308E00B2305
:101E4000FB181B780122134001D0692300E0002316
:101E50001800BD4604B080BD000002408CFDFF1F8D
:101E600080B582B000AF786007497B681C221800FB
:101E700002F058F87B6801331A00044B1A60C04620
:101E8000BD4602B080BDC0463844000090FDFF1F33
:101E900090B583B000AF074B7B60074B1C68802375
:101EA000D900786801230A22A047C046BD4603B086
:101EB00090BDC0460C3000F090FDFF1F80B582B091
:101EC00000AF78607B68054A934201D06B2300E045
:101ED00000231800BD4602B080BDC0466B66656B2E
:101EE00080B584B000AFF860B9607A607B68002B81
:101EF00003D1134B180000F011FE7B681B78002BF8
:101F00000AD1FB685B690121BA6891400A00D2439B
:101F10001A40FB685A610FE07B685A78B968FB6821
:101F2000180001F0CEFEFB685A690121BB68994098
:101F30000B001A43FB685A61C046BD4604B080BD21
:101F40007444000080B584B000AF78607B681B0CDF
:101F5000084A94466344FB60FB6819687B681B046D
:101F60001B0C01229A40FB680A431A60C046BD461A
:101F700004B080BD0070044080B584B000AF7860CC
:101F80000023FB6009E00D4BFA689200D3587A6891
:101F90009A4206D0FB680133FB60FB68012BF2D943
:101FA00000E0C046FB68012B03D9054B180000F088
:101FB000B5FDFB681800BD4604B080BD0C450000AF
:101FC0001C45000080B584B000AF78603960002304
:101FD000FB603B681022134005D07B681022DA704A
:101FE000064BFB6005E03B680122134001D0044B27
:101FF000FB60FB681800BD4604B080BD4F040000C4
:102000004E04000080B582B000AF786039607B6814
:10201000DB78DBB21A001023134006D17B689B7873
:10202000DBB21A002023134006D00A4B1B68396824
:102030007A681000984705E0074B1B6839687A6892
:1020400010009847BFF34F8FC046C046BD4602B050
:1020500080BDC04628FEFF1F2CFEFF1F80B586B046
:1020600000AFF860B9607A60BB68002B02D07B6873
:10207000002B03D1354B180000F050FDFB68180011
:10208000FFF77AFF0200324B9200D3581800FFF797
:1020900059FFFB6800221A70FB6800225A70FB6827
:1020A00000229A70FB68FF22DA70FB6800225A71E6
:1020B000FB6850229A71FB680022DA71FB689B78FA
:1020C000DBB27F221340DAB2FB689A70214AFB68C8
:1020D0001100180001F007FEBB6859687A68FB68B8
:1020E000180000F059F817203B18FA6892791A7016
:1020F0003B183A1812787F210A401A70BB685B7847
:10210000DB01D9B23B183A1812780A431A703B180F
:102110003A1812780F218A431A70BB681B7A0F2273
:102120001340D9B23B183A1812780A431A70FB6868
:102130003A1812789A71BB681B78DB01DAB2FB6837
:102140009A70C046BD4606B080BDC04650450000EE
:10215000144500001250000080B582B000AF7860D6
:102160007B68002B03D10A4B180000F0D7FC7B687A
:10217000084A5A607B6800225A707B6800221A72F3
:102180007B6801221A70C046BD4602B080BDC046C1
:1021900080450000A086010080B58CB000AFF860DB
:1021A000B9607A6001235B42FB620023BB620023BB
:1021B0007B622323FB1800221A704AE02323FB18BA
:1021C0001B7801229A401300FB612223FB18002296
:1021D0001A7031E02223FB181A782A4B5200D35A86
:1021E0001A00FB6953431900786801F0DCFE030014
:1021F000BB61BA68BB699A4203D9BA68BB69D31A92
:1022000002E0BA69BB68D31A7B617A69FB6A9A42B9
:102210000CD22323FB181B78BB622223FB181B78EC
:102220007B627B69FB627B69002B0BD02222BB188F
:10223000BA18127801321A702223FB181B783F2B30
:10224000C8D900E0C0462322BB18BA181278013260
:102250001A702323FB181B78022B02D8FB6A002B71
:10226000ACD1BB6ADBB29B01DAB27B6ADBB23F2145
:102270000B40DBB21343DAB2FB685A70C046BD466E
:102280000CB080BD8C44000080B584B000AF786095
:1022900008001100FB1C021C1A70BB1C0A1C1A70DF
:1022A0000023FB607B68180001F063FD0300BB6046
:1022B000BB682022134002D00F4BFB6016E07B6806
:1022C0009B78DBB230221343DAB27B689A70FB1C36
:1022D0001B78DB18DAB2BB1C1B78012B01D1012360
:1022E00000E000231343DAB27B681A71FB68180020
:1022F000BD4604B080BDC0464C04000080B586B029
:1023000000AF786008001100FB1C021C1A70BB1C97
:102310000A1C1A7000237B617B68180001F029FDFC
:102320000300FB601323FB1806221A70FB682022AF
:10233000134009D07B689B78DBB21A00202313403E
:1023400002D11C4B7B6130E00B217B187A685278FC
:102350001A707B181B783F221340DAB27B685A70E0
:102360007B689B78DBB214221343DAB27B689A70E5
:102370007B687A1812785A7000E0C0461322BB18A6
:102380001B78BA18591E1170002BF6D1FB1C1B7854
:10239000DB18DAB2BB1C1B78012B01D1012300E052
:1023A00000231343DAB27B681A717B691800BD46BB
:1023B00006B080BD4C04000080B586B000AFF86068
:1023C000B9607A603B6000237B611323FB18002215
:1023D0001A70C046FB68DB78DBB25BB2002BF9DA1F
:1023E000FB680222DA70FB689B78DBB21022134391
:1023F000DAB2FB689A7030E0BB685A1CBA601A788F
:10240000FB681A71C046FB68DB78DBB21A00022356
:102410001340F8D013217B18FA68D2781A70FB6841
:102420000222DA707B181B781022134004D0FB685C
:102430001022DA70194B7B611323FB181B780122E1
:10244000134007D07B68002B04D0FB680122DA70B0
:10245000134B7B617B69002B05D17B685A1E7A6028
:10246000002BC9D100E0C0467B69002B03D13B683B
:102470000422134003D07B69094A934208D1FB68C8
:102480000222DA70FB68180001F058FC03007B613F
:102490007B691800BD4606B080BDC0464F040000F1
:1024A0004E04000080B584B000AF786039603B68AE
:1024B000002B03D18C4B180000F030FB0F23FB18CE
:1024C0003A6852791A700023BB60884A7B68110011
:1024D000180001F008FCC0467B68DB78DBB25BB219
:1024E000002BF9DA3B681B7B002B07D03B685B793C
:1024F000012B03D10F23FB1800221A703B681B68C5
:102500000122134006D00F23FB181B78012B1DD18D
:102510000423E4E03B681B68022213400BD03B68B5
:1025200019790F23FB181A787B681800FFF7E6FE6D
:102530000300BB600AE03B6819790F23FB181A7887
:102540007B681800FFF7A0FE0300BB603B681B68B8
:102550000122134026D1BB68002B01D0BB68BEE02E
:10256000C0467B68DB78DBB21A0002231340F8D048
:102570007B68DB78DBB21A007B6811001800FFF77C
:1025800021FD0300BB60BB68002B0BD0BB68584A21
:10259000934205D1574BBB607B68180001F0CEFB1E
:1025A000BB689CE03B681B7B002B00D170E07B6824
:1025B0000222DA703B681B7B013BDAB23B681A737C
:1025C0003B689A683B681B7BDB00DA401300DAB299
:1025D0007B681A71C0467B68DB78DBB21A00022385
:1025E0001340F8D07B68DB78DBB21A007B681100FF
:1025F0001800FFF7E7FC0300BB60BB68002B09D0A5
:10260000BB683B4A934203D17B68180001F096FBFC
:10261000BB6864E03B681B7B002B02D0BB68002BCF
:10262000C5D03B685B79012B32D17B680222DA701E
:102630003B6819797B6801221800FFF75FFE0300F1
:10264000BB60BB68002B01D0BB6848E0C0467B681C
:10265000DB78DBB21A0002231340F8D07B68DB780A
:10266000DBB21A007B6811001800FFF7ABFC030017
:10267000BB60BB68002B0BD0BB681D4A934205D1E1
:102680001C4BBB607B68180001F058FBBB6826E060
:102690003B685B79002B0ED13B685B69002B0AD04D
:1026A0003B6819693B685A693B681B687868FFF7A3
:1026B00083FE0300BB603B685B79012B0ED13B6856
:1026C0005B69002B0AD03B6819693B685A693B6813
:1026D0001B68786801F072FB0300BB60BB681800E0
:1026E000BD4604B080BDC046A045000012500000A9
:1026F0004E0400005104000080B500AF044B1B687D
:10270000044A19001000FFF77DFCC046BD4680BD9D
:1027100020FEFF1F0060064080B500AF044B5B68E1
:10272000044A19001000FFF76DFCC046BD4680BD8D
:1027300020FEFF1F0070064080B500AF044B1A68F2
:10274000044B1B68044819009047C046BD4680BD35
:1027500034FEFF1F30FEFF1F00A0064080B584B08E
:1027600000AF78607B681B0C084A94466344FB60AA
:10277000FB6819687B681B041B0C01229A40FB68EC
:102780000A431A60C046BD4604B080BD00700440D4
:1027900080B584B000AF78600023FB6006E00C4A8F
:1027A0007B68934206D0FB680133FB60FB68002B1B
:1027B000F5D000E0C046FB68002B03D0054B1800A5
:1027C00000F0ACF9FB681800BD4604B080BDC046FF
:1027D00000000440B845000080B584B000AF7860C8
:1027E00039603B68002B03D11E4B180000F096F9AE
:1027F0007B681800FFF7CCFF0300FB601A4B180042
:10280000FFF7ACFF3B681B785B0002221A403B6875
:10281000DB789B0004210B401A433B689B78DB006C
:1028200008210B401A433B685B781B0130210B40A9
:102830001A437B681A603B689B79DB0078221A4058
:102840003B681B799B0004210B401A433B685B7972
:10285000190003230B401A437B685A60C046BD46EB
:1028600004B080BDF04500000000381080B582B093
:1028700000AF78607B68002B03D10E4B180000F08E
:102880004DF97B6800221A707B6800225A707B68C1
:1028900000229A707B680022DA707B6801221A712C
:1028A0007B6801225A717B6800229A71C046BD463E
:1028B00002B080BD0C46000080B500AF0349044A59
:1028C0008023DB028B50C046BD4680BD00700440B3
:1028D0004410000080B500AFFFF7EEFF0623012192
:1028E00002221800FEF7AEFF0D4B1800FEF786FE21
:1028F0000C4B2221180001F0F4FA0A4B180001F0E9
:10290000D2FAC046074B180001F0FAFA0300042B74
:10291000F8D1054B054A1A60C046BD4680BDC04689
:102920002846000000E00740B8FCFF1F24F4000028
:1029300080B584B000AF78607B681B0C084A944671
:102940006344FB60FB6819687B681B041B0C012255
:102950009A40FB680A431A60C046BD4604B080BD79
:102960000070044080B586B000AFF860B9607A604E
:102970007B68002B03D1084B180000F0CFF8BB6830
:102980009B00FA68D3187B617B697A6812881A8089
:10299000C046BD4606B080BD2C46000080B584B060
:1029A00000AFF860B960FB1D1A70FB68BA6892004E
:1029B000D358094A1A40FB1D1B781902E023DB009B
:1029C0000B401A431100FB68BA689200D150C04610
:1029D000BD4604B080BDC046FFF8FFFF80B586B09D
:1029E00000AF404B1800FFF7A3FF3F4B1800FFF765
:1029F0009FFF14217B183D4A12881A807B183C489F
:102A00001A000621FFF76CFA10217B18374A12884A
:102A10001A807B1837481A000021FFF761FA0C2151
:102A20007B1801221A707B1800225A707B183148DB
:102A30001A000D21FFF754FA2F4B00220C21180029
:102A4000FFF7ACFF08203B1800221A803B181A78C9
:102A500003210A431A703B185A7807218A43111C34
:102A600002220A435A703B1823481A000321FFF739
:102A700079FF3B1D00221A803B1D1A7803210A436F
:102A80001A703B1D5A7807218A43111C02220A43FF
:102A90005A703B1D18481A000421FFF763FF164BBC
:102AA000012206211800FFF779FF144B01220021B3
:102AB0001800FFF773FF114B01220D211800FFF7DB
:102AC0006DFF0E4B002205211800FFF767FF0B4B2F
:102AD0005A690A4B0A490A405A61C046BD4606B0C7
:102AE00080BDC046090038100A0038109C4600001E
:102AF00000F00F4040F00F400090044000A0044060
:102B0000FDFFFFFE80B500AF034A88235B01002173
:102B1000D150C046BD4680BD0070044070B5050070
:102B20000E4C0F48210001F01BFA2100280001F093
:102B300017FA0C4A111DCB6F013BCB67002B07DB4B
:102B4000936F591C91670A221A7001F0EAF970BD5F
:102B500021000A2000F028F8F7E7C046B0FEFF1F6A
:102B6000A446000038FEFF1F2023C26810B59A4318
:102B7000C2608369826A040093420CD000F0BCF802
:102B8000E368074A1A4010231343E360A36AA36172
:102B90002369E3622360E268024B1340E36010BDE7
:102BA000EFCFFFFFBFBFFFFFF8B5CA684F4B05006F
:102BB00013400C00CB60930602D50800FFF7D4FF4A
:102BC000A268E668531C0FDAB3050DD402235B42FA
:102BD0009B1AA36090235B021E432368E6605A1C85
:102BE00022601D70E8B20AE0414A3240022A07D052
:102BF0000023A36080331E43E66001204042F8BDFD
:102C000080213C4B090233408B420AD10021200035
:102C100000F04EF9E3689B0602D52000FFF7A4FF01
:102C2000E6689023F0225B0233431201E360164210
:102C300010D1606901F017FB002821D073051FD562
:102C400023002433236123600123E36192235B0289
:102C50003343E36090210901226826690B4225D0A5
:102C6000E36A9A4200D91300991BB34217D1731C2F
:102C7000E3622360E3695A1EA26023633570B1E703
:102C800080277F00380000F003F99423E2685B029C
:102C900033431A4320612060E761E260DAE72200F3
:102CA000300000F059F80028E1D0A6E7511CE8B246
:102CB00021601070E26A21688A4200D91100E2693D
:102CC000891B22635B0504D40A2802D08A4200DDF6
:102CD00088E7002322003000E6622660A36000F04F
:102CE0003BF8002800D088E77CE7C046FFFFF7FFED
:102CF0008A10000010A00000C368154A70B51A4081
:102D0000C2608222040005690168C66A1A40022A6C
:102D100002D00120404270BD8022180052021040B3
:102D20001342F8D0B14200D231008D4208D10020C8
:102D3000E268084BE56213402560A060E360EAE7C3
:102D400022002800491B00F007F80028EFD0E0E738
:102D5000FFFFF7FFFFFFFEFFF7B5D5680F00140078
:102D600056690190EB0205D5102330001D4301F098
:102D700077FAA061104B1D420FD03000A16901F01D
:102D800078FA002806DA80230120E26840421343E3
:102D9000E3600FE0094B1D40E56001993A00300007
:102DA00001F06DFA4100A3694908791A5918A16127
:102DB0000028E8D1FEBDC04610000200EFFFFDFF75
:102DC000F7B50027314BC21C1C689508B84215D0D6
:102DD0002B000A330193EB1C9C46002C10D10C30C5
:102DE00000F092F9431C09D080239B0503604560E5
:102DF0008460002F48D1254B18601EE00020FEBDE6
:102E00008021236849058B423BD1A7686368002F66
:102E10000BD0802639687605B14206D17968033334
:102E2000CB186360BB68A360EFE7AB4207DB634589
:102E300005DC80239B05236020000C30DFE701992F
:102E40008B4211D9802189052160032120008A430A
:102E500080210C305B1B82184905033B6560A26032
:102E6000116053609760CAE7002F0AD19B00C01A17
:102E700000F04AF9431CC1D080239B0523606560A4
:102E8000DAE72700A468A8E7B860D6E7F0FEFF1FDE
:102E900010B5FFF795FF041E05D11722034901F075
:102EA000EEF901F03EF8200010BDC046B946000022
:102EB000F7B5394BC66804000D0000921E4202D1DE
:102EC00002273800FEBD43691800019301F0CBF9D9
:102ED000071EF5D1009B012B05D0022B2CD0002B17
:102EE00005D00237EDE7200000F05AF82D18002D2C
:102EF000E6DBB30404D52368E26A9A4200D2E362B7
:102F0000A169A9420EDCE26A2368934200D2130051
:102F1000226958180092801AA84203DB206B0A1815
:102F2000AA4228DC20231E430023A562A36063601D
:102F30001A4B1E40E660C4E7019801F091F9E2687F
:102F4000002804DA802313430127E360B9E7E16A2C
:102F50002368994200D90B00A1695B1821695B1AAB
:102F6000920603D5A26A934200DA1300834200DA84
:102F70000300ED18BBE76D1AB20701D5281AA0604F
:102F8000F20703D5009A9B1AEB1A6360009B5D1948
:102F9000202325609E43CBE703001000BFCFF7FF3F
:102FA000C268930705D1212201200E4B40421A60CE
:102FB00070472023134012030AD5002B02D0806AE9
:102FC0000138F5E70368826900699B18181AF7E76A
:102FD000002B01D0806AEBE70368826900699B18C7
:102FE000181AE5E7F4FEFF1F37B5184C1849220000
:102FF000002000F0ABF8802380225B00002120003D
:10300000D20000F02FF8134C134D220029000120AC
:1030100000F09CF8802380225B0000212000D20079
:1030200000F020F80D4B1B680193022B0DDD0C4CBA
:1030300029002200022000F089F88023802200214C
:1030400020005B00D20000F00DF837BD38FEFF1FF6
:10305000D146000074FEFF1FD3460000A0460000CA
:10306000B0FEFF1FF0B5C56804000120AE070CD00C
:1030700080208000824213D08020C000824205D090
:103080008020400082420BD0FF38F0BD2100012398
:1030900024312A43002021612160E361E260F4E7EA
:1030A000024F5E1E0120BE42F3D9EEE7FEFFFF0095
:1030B000032310B5411C0200184217D1104C1368AD
:1030C000104818189843204217D0DCB2501C002C2E
:1030D00011D0FF242402901C23420CD0FF200004B6
:1030E0000340581E8341D318D81C04E00130421E0F
:1030F0001278002ADFD1401A10BD0432DFE7C04643
:1031000080808080FFFEFEFE70B50D4D04002B68B0
:10311000002B01D10B4B2B6003232E6803349C43FF
:103120003419200000F09CF8002802D12C603000F7
:1031300070BD0C220126044B76421A60F7E7C046A8
:10314000ECFEFF1FFCFEFF1FF4FEFF1FF7B50D0096
:1031500001901000140000F033F82B78722B1CD073
:10316000772B1DD0612B26D1144A593B0220691CB4
:10317000032784460426012508782B2813D06228CB
:1031800016D0E260019A62611B0704D50222002179
:103190002000FFF78DFE2000FEBD00230122E5E7A1
:1031A00004230222E2E760463A4303430131E3E7A6
:1031B00032432B43FAE70024EDE7C04602800000CB
:1031C000F0B5C568040089B0AB0722D02B0718D42E
:1031D0004769066900F022F8380001F03EF82B0537
:1031E00002D5300000F0A6FE0B4BAD0DAD059D42A3
:1031F00007D120226846216A01F03EF8684600F0B7
:10320000C6FE3C220021200000F090FE002009B004
:10321000F0BD01204042FAE7000080AD73B5002800
:1032200013D000F029F80500280076BD3000604377
:10323000094BC01800F020F8002801D001256D428C
:103240000134019BA342F1DCEEE7044B04001B6850
:1032500005003C260193F4E738FEFF1FA04600005E
:1032600003000448002803D000228342524110008A
:103270007047C046FCFFFF1FC36870B503221E00E5
:1032800004001640134211D09B0611D5856AFFF742
:103290006BFCE268094B20001340E360FFF72CFD54
:1032A0000022060029002000FFF702FE300070BD5A
:1032B000036882699D180369ED1AEAE7FFCFFFFFF3
:1032C000F0B50D0014001A006A40D20F8BB049000F
:1032D000D2070600490D039207D05248814204D01C
:1032E0005A00520D01D082420BD14F4A6D009542D7
:1032F00000D883E04D4A954200D182E000204C493D
:1033000071E08A180692DB02620D13438022802747
:1033100012061A4300232D032D0B7F033D43280083
:103320001900079200F057FF0023E40222000490E6
:1033300005912800190000F04EFF00230091019331
:103340008446049A059B0098019912184B410892F3
:10335000099363460493002332002000190005936B
:1033600000F039FF350000230C002A000600190088
:10337000079800F030FF2200002380185941049B79
:10338000059CC0186141089A099B0C000025A418EF
:103390005D41069B274AB60830439918BD420CD2BE
:1033A000254AC60F94466344220019002B001219C7
:1033B0006B41164334001D0040000023C20FA418C7
:1033C0005D4180222E0023001206904203D101238A
:1033D00022009A431300194A914206D81800039A12
:1033E0000C053243A1180BB0F0BD002903DB039A92
:1033F000134B1A43039200200399F4E759009142BA
:10340000F9D90A4A5B00934200D977E76D0D00D1E4
:1034100074E700205B0D00D171E7094B039A1A4352
:103420001100E0E7FF070000FFFFDFFF0000E0FF03
:103430000000F87F01FCFFFF00FCFFFFFD0700001C
:103440000000F07F0A0030B5FE250300124C50004A
:103450004208C90F1419C9072D05AC4210D2C82063
:1034600000061218DC00D2005B0F1343E00FC018F7
:1034700080231B069C4201D101239843084302E0AC
:10348000002C01DA081C30BD044B984202D8FF2002
:10349000C005F3E70248F6E70000F0C70000E0FFD0
:1034A0000000C07FC20DF8B5FF23150004001D40C9
:1034B0004C401A4208D09D4206D0CE0D32001A4030
:1034C0001E4201D09A4213D1FF231B061A0040006E
:1034D00098423DD342D1490091423FD8000E3DD0A1
:1034E000090E3BD0FF20E40FE407C00520431DE098
:1034F000AD188022002312060902000210430A437D
:10350000190000F068FE07000E1E10DA7F3D8021D2
:10351000E30FDB07320AE8051A4382180906300672
:10352000884207D0FD2D05D8C00F8018F8BD803D1A
:103530004E00ECE7501C002F01D101229043FD2DDD
:10354000F4D9002D02DBFF22D2051343181CEDE74E
:103550004D009D42BFD2E00FC007E7E70048E5E716
:103560000000C07F031CC00DF0B50200FF241E0048
:1035700022404E40204208D0A24206D0CD0D280065
:103580002040254201D0A04206D1FF255C002D0637
:10359000AC4249D92C483AE0101A80220902D205DF
:1035A00049081B0211435B08013913438B422FDA90
:1035B00002007D3280253F201A27F60FF6012D04E8
:1035C0005B005C1A00D51C006400631A00D5230060
:1035D0005C00631A00D523005C00631A00D5230049
:1035E0005C00631A00D523005C00631A00D5230039
:1035F0009C062643FE4183432E42E1D05B005B1ACA
:10360000DB43DB0FF618FD2A06D8D0058019F0BD84
:1036100002005B107E32CDE7F00FC007002AF6DB18
:10362000FF23DB051843F2E74A00AA42B2D80B4356
:103630005B001B0EAED0F00FC007230EE7D0AA42EE
:10364000EED19442A6D0E2E70000C07F80B582B000
:1036500000AF0200FB1D1A70FB1D1B785BB28033AC
:1036600001D1012306E0FB1D1B785BB21800FCF7BB
:10367000CFFE00231800BD4602B080BD80B582B0E9
:1036800000AF78607B681B681800BD4602B080BD43
:1036900090B583B000AF040008003A601900FB1D2C
:1036A000221C1A70BB1D021C1A707B1D0A1C1A708A
:1036B000BB1D1B7899B27B1D1C783A68FB1D1878DE
:1036C0002300FCF757FFC046BD4603B090BD90B540
:1036D00083B000AF040008001100FB1D221C1A700B
:1036E000BB1D021C1A707B1D0A1C1A70BB1D1B78A7
:1036F00099B27B1D1A78FB1D1B781800FCF7C6FFDA
:10370000C046BD4603B090BD80B584B000AF020096
:10371000FB1D1A703B1D0A1C1A803B1D1B881B0ACF
:103720009BB2DAB20C217B181A703B1D1B88DAB2EF
:103730007B185A707A18FB1D187802230121FFF7B5
:10374000A7FFC046BD4604B080BD80B582B000AFC3
:10375000786039607B683A685A60C046BD4602B0FE
:1037600080BD80B582B000AF786039607B683A6810
:103770009A60C046BD4602B080BD80B582B000AF41
:10378000786039607B681A683B681A437B681A6006
:10379000C046BD4602B080BD80B582B000AF786043
:1037A0007B680022DA607B68DB681B041B0C180056
:1037B000BD4602B080BD80B582B000AF0200FB1DE7
:1037C0001A70FB1D1B785BB2803301D1012306E028
:1037D000FB1D1B785BB21800FDF788FC0023180066
:1037E000BD4602B080BD80B584B000AF786039605E
:1037F0007B681B68FB60FB6880229343FB60FA6870
:103800003B681343FB607B68FA681A60C046BD469C
:1038100004B080BD80B582B000AF786039607B684D
:103820001A683B681A437B681A60C046BD4602B0FE
:1038300080BD80B584B000AF78607B681B68FB609A
:10384000FB6880229343FB60FB6801221343FB600B
:103850007B68FA681A60C046BD4604B080BD80B57A
:1038600084B000AF78607B681B68FB60FB688022D7
:103870009343FB60FB6801229343FB607B68FA681B
:103880001A60C046BD4604B080BD80B582B000AFAE
:10389000786039607B683A685A60C046BD4602B0BD
:1038A00080BD80B582B000AF786039607B683A68CF
:1038B0009A60C046BD4602B080BD84B0B0B500AFCE
:1038C00010257C1920606160A260E36029007B18EC
:1038D000DA687B181B69012199400B001900100060
:1038E000FFF7DFFFC046BD46B0BC08BC04B01847B8
:1038F00084B0B0B500AF10257C1920606160A26073
:10390000E36029007B18DA687B181B690121994064
:103910000B0019001000FFF7B8FFC046BD46B0BC51
:1039200008BC04B0184780B500AFFDF7E9FD020000
:1039300080231B029A4202D180231B0200E0002355
:103940001800BD4680BD80B582B000AF78600A0027
:10395000FB1C1A70FB1C1B78002B08D07B685B7863
:10396000DBB201221343DAB27B685A7007E07B684E
:103970005B78DBB201229343DAB27B685A70C046AF
:10398000BD4602B080BD80B584B000AF786008004D
:103990001100FB1C021C1A70BB1C0A1C1A700F20A1
:1039A0003B187A6852791A703B183A1812783F21FE
:1039B0008A431A70FB1C1B78DB00DBB238221340F1
:1039C000DAB2BB1C1B7807210B40DBB21343D9B220
:1039D0003B183A1812780A431A707B683A18127822
:1039E0005A71C046BD4604B080BD80B584B000AFFA
:1039F000786039607B68DB78DAB20F203B180621EB
:103A00008A431A703B681022134005D03B183A18BD
:103A1000127810210A431A703B680822134006D01E
:103A20000F22BB18BA18127808210A431A707B6853
:103A30000F22BA181278DA70C046BD4604B080BDB5
:103A400080B584B000AF786039607B68DB78DAB22B
:103A50000F203B1806218A431A703B68102213403E
:103A600005D03B183A18127810218A431A703B6827
:103A70000822134006D00F22BB18BA18127808216A
:103A80008A431A707B680F22BA181278DA70C0461F
:103A9000BD4604B080BD80B584B000AF78603960A9
:103AA0007B68DB78DAB20F203B1806218A431A7054
:103AB0003B680422134005D03B183A1812780421C1
:103AC0000A431A703B680222134006D00F22BB182B
:103AD000BA18127802210A431A707B680F22BA18AA
:103AE0001278DA70C046BD4604B080BD80B584B09F
:103AF00000AF78607B68002B03D07B68DB69002B0C
:103B000001D1042310E07B68DB69FB60FB685B6824
:103B10001800FEF751F9FB689B681800FEF7A0F942
:103B2000FB6802221A6000231800BD4604B080BD65
:103B300080B582B000AF78607B680121180000F08A
:103B400004F8C046BD4602B080BD80B584B000AF69
:103B500078600A00FB1C1A707B68180000F010F8EF
:103B60000300FB60FB68002B06D1FB1C1B78012BBC
:103B700003D1FEF78DF900E0C046BD4604B080BD1C
:103B800080B584B000AF78607B68002B01D104233E
:103B90000DE07B68DB69FB607B68DB69002B05D08F
:103BA000FB681B68022B01D1002300E06D23180085
:103BB000BD4604B080BD80B584B000AFF860B96088
:103BC0007A603B60FB68002B01D104231DE03B6859
:103BD000013BBA68134004D13B68013B7A6813404B
:103BE00001D0652311E0FB681B68BA689A420BD3C9
:103BF000BA687B68D218FB681968FB685B68CB18E9
:103C00009A4201D8002300E066231800BD4604B0A4
:103C100080BD80B584B000AFF860B9607A60FB68A1
:103C2000002B02D07B68002B01D104232BE07B68A2
:103C300020220021180000F079F9FB681B68BA689F
:103C4000D21A7B681A60FB68DA687B685A60FB6886
:103C50005A68FB681B7A1900100000F0A4F90300F1
:103C60001A007B689A607B680422DA607B68042211
:103C70001A617B6804225A617B6804229A617B681E
:103C80000422DA6100231800BD4604B080BD80B56F
:103C900084B000AFF860B960FB1D1A70FB1D1B7883
:103CA000002B05D10122BB689A40FB689A6004E0B2
:103CB0000122BB689A40FB685A60C046BD4604B00A
:103CC00080BD80B584B000AFF860B960FB1D1A708C
:103CD000FB1D1A78B968FB681800FFF7D8FFC046CB
:103CE000BD4604B080BD80B582B000AF7860396059
:103CF0003A6880235B01134009D07B689B79DAB274
:103D00003B681B0ADBB21343DAB27B689A713A68EC
:103D10008023DB01134009D07B689B79DAB23B68D2
:103D20001B0ADBB21343DAB27B689A713B68DAB2E2
:103D30007B68DA70C046BD4602B080BD80B584B0F5
:103D400000AF78600023FB607B689B78DBB2382291
:103D50009343DAB27B689A70C0467B68DB78DBB24B
:103D60001A0020231340F8D1FB681800BD4604B0A8
:103D700080BD80B584B000AF78607B68DB78DBB253
:103D8000FB607B689B79DBB21A004023134004D0B0
:103D9000FB688022D2011343FB607B689B79DBB216
:103DA0001A001023134004D0FB68802252011343F1
:103DB000FB60FB681800BD4604B080BD80B586B0CE
:103DC00000AFF860B9607A603B6000237B6113212B
:103DD0007B1800221A707B181B78DBB20133DAB231
:103DE0007B181A70C046FB68DB78DBB25BB2002B35
:103DF000F9DAFB680222DA70FB689B78DBB21822E2
:103E00009343DAB2FB689A707B68012B07D1FB6899
:103E10009B78DBB208221343DAB2FB689A70FB6826
:103E20001B79DAB21323FB181A7032E0C046FB6824
:103E3000DB78DBB21A0002231340F8D0FB680222C1
:103E4000DA707B68002B12D13B680422134006D144
:103E5000FB681800FFF772FF03007B6107E0FB6857
:103E60009B78DBB210221343DAB2FB689A707B684E
:103E7000012B07D1FB689B78DBB208221343DAB22F
:103E8000FB689A70BB685A1CBA60FA681279D2B2A1
:103E90001A707B685A1E7A60002BC7D17B691800A4
:103EA000BD4606B080BD80B584B000AF78600F20FD
:103EB0003B187A6852781A703B183A1812786021C9
:103EC0008A431A703B183A18127840210A431A7034
:103ED0007B683A1812785A7000231800BD4604B067
:103EE00080BD80B582B000AF78600A00FB1C1A70FC
:103EF0007B68FA1C12781A70C046BD4602B080BDBD
:103F000080B582B000AF78607B68DB78DBB21800E8
:103F1000BD4602B080BD10B5FFF766F8FCF7C8FCDF
:103F200010BDFEE710B500F06DF910BD10B500F042
:103F30007FF910BD10B5002811D080210C3849053B
:103F400001608268002A0AD013688B4207D1436857
:103F5000546803331B19436093688360F1E710BD15
:103F600070B50C000500287800280FD0A368013B2D
:103F7000A360002B05DB23685A1C226018700135F2
:103F8000F1E72100FEF710FE431CF8D170BD10B51B
:103F90000400FFF78DF80100200000F067F910BD64
:103FA00003000B4321D4002931D00122D207030999
:103FB00001E0090112099942FBD9430801E04900D7
:103FC00052089942FBD900E04908401A07D35241F0
:103FD000FAD301461046704749084018F7D29218A4
:103FE000FAD34018014610467047CB0F00D0494223
:103FF000021000D54042534008B5FFF7D4FF0CBC77
:10400000521000D34042002A00D549421847F446D6
:10401000002000F02EF86047F0B517001F4323D0B2
:1040200001264408CF073C434D08A71A2F469F415D
:1040300003D392185B410136F7E70024002505E021
:104040005208DF073A435B0824196D41871A0F466F
:104050009F4102D3801A99410134013EF0D10246BA
:104060000B4620462946F0BD0020002100F001F853
:10407000F0BD704710B5002802D10020002110BD0E
:10408000030C12D10004030E13D10002030F14D14C
:104090000001830F15D18000002816DB4000C412F8
:1040A0006318420510001900E9E780235B04C91872
:1040B000E9E780231B04C918E8E78023DB03C9185C
:1040C000E7E780239B03C918E6E780235B03C91851
:1040D000E5E7802310B5C10FDB05C907C918C31771
:1040E000C0185840FFF7C6FF10BD10B580249E21B0
:1040F000031C1A02C00D24062243091A02D4CA4026
:10410000100010BDFE2802D90020A242F9D1D80F1C
:104110000138F6E700282BD0030C15D10004030E5C
:1041200016D10002030F17D10001830F18D18000B0
:10413000002819DB400003008033181240181B06CA
:1041400001D101339843704780231B05C918E6E766
:104150008023DB04C918E5E780239B04C918E4E742
:1041600080235B04C918E3E780231B04C918E2E736
:104170000020E8E7802310B5C10FDB05C907C91887
:10418000C317C0185840FFF7C5FF10BD802110B5F8
:10419000C905FFF7BFFF10BDF0B50A00FF24031CDF
:1041A000024345000E0000202406002A05DBA5423C
:1041B00002D8994289414842F0BDA542FCD8490045
:1041C000A142F9D8B342F7D280231B06D218531E5E
:1041D0009A411000F0E710B543435143C918040C4D
:1041E000130C5C43091992B2040C544380B243434C
:1041F00050432204240C801861411A041B0C8018BF
:10420000594110BD8446830708D18B0706D1131F7F
:1042100004D304C904C0043BFBD21A1D524205D08A
:10422000891A801A8B5C83540132FBD16046704737
:104230008446043A09D3830707D109060B0A1943B8
:104240000B0C1943043A02C0FCD2043203D00170B3
:104250000130013AFBD1604670470120404270476F
:1042600001204042704701204042704701204042F7
:1042700070470120404270470120404270471000C3
:104280007047FFFF433A5C55736572735C31326D62
:1042900063705C446F63756D656E74735C4D4355FC
:1042A0005870726573736F4944455F31312E342EF7
:1042B000315F363236305C776F726B737061636575
:1042C000325C546865726D6F67656E65746963739F
:1042D0005C647269766572732F66736C5F6C707460
:1042E0006D722E683A333137203A207469636B73EC
:1042F000203E203000FFFFFF2E66736C5F636C6F03
:10430000636B2E633A323137203A20675F787461ED
:104310006C304672657100FF2E66736C5F636C6F64
:10432000636B2E633A333236203A20675F787461CC
:104330006C304672657100FF5A1500005A15000076
:1043400078150000E015000078150000E015000069
:10435000E0150000B0150000BA150000E0150000DF
:10436000E0150000E0150000C4150000CE150000A7
:10437000E0150000E0150000E0150000E015000069
:10438000E0150000D81500008002DC020005B80529
:1043900080079508000A710B2E66736C5F636D7061
:1043A0002E633A3733203A20696E7374616E636509
:1043B000203C2041525241595F53495A4528735F6E
:1043C000636D7042617365732900FFFF2E66736C25
:1043D0005F636D702E633A3830203A204E554C4C56
:1043E00020213D20636F6E66696700FF2E66736C47
:1043F0005F636D702E633A313432203A204E554C53
:104400004C20213D20636F6E666967002E66736CD9
:104410005F636D702E633A313833203A204E554C2D
:104420004C20213D20636F6E66696700802101701A
:1044300002780A42FCD0704710B5002905D0046804
:104440008C439340194021430160BFF36F8FBFF34A
:104450004F8F10BD080010001800200030004000F1
:1044600060008000C0000001800100020003000421
:104470000006FFFF2E66736C5F6770696F2E633AEC
:104480003935203A20636F6E6669670014001600A4
:1044900018001A001C001E00220028001C0020002A
:1044A000240028002C003000380044003000380080
:1044B0004000480050005800680080005000600034
:1044C000700080009000A000C000F000A000C000BC
:1044D000E0000001200140018001E0014001800175
:1044E000C0010002400280020003C00380020003FA
:1044F0008003000480040005000680070005000614
:10450000000700080009000A000C000F00600640C8
:104510000070064006003410070034102E66736CDD
:104520005F6932632E633A313835203A20696E7301
:1045300074616E6365203C2041525241595F53497A
:104540005A4528735F69326342617365732900FFBE
:104550002E66736C5F6932632E633A353036203ACB
:10456000206D6173746572436F6E666967202626DD
:1045700020737263436C6F636B5F487A00FFFFFFC9
:104580002E66736C5F6932632E633A353739203A91
:10459000206D6173746572436F6E66696700FFFF1B
:1045A0002E66736C5F6932632E633A313032342089
:1045B0003A207866657200FF2E66736C5F6C7074CB
:1045C0006D722E633A3837203A20696E7374616ECB
:1045D0006365203C2041525241595F53495A452856
:1045E000735F6C70746D7242617365732900FFFFB5
:1045F0002E66736C5F6C70746D722E633A39352061
:104600003A20636F6E66696700FFFFFF2E66736C6A
:104610005F6C70746D722E633A313432203A2063CD
:104620006F6E66696700FFFF00000000433A5C554B
:10463000736572735C31326D63705C446F63756D6A
:10464000656E74735C4D43555870726573736F4932
:1046500044455F31312E342E315F363236305C774F
:104660006F726B7370616365325C546865726D6FF5
:1046700067656E65746963735C647269766572738D
:104680002F66736C5F706F72742E683A3236342006
:104690003A20636F6E66696700FFFFFF0101FFFF4D
:1046A000030000002A2A2A20617373657274206651
:1046B00061696C6564203A20002A2A2A205F4373CE
:1046C00079735F616C6C6F63206661696C65640A05
:0846D0000072007700FFFFFFFC
:1046D800F8FCFF1FFDFFFFFF010A2300490000004F
:1046E8000000364200F00F400600000001051E00E1
:1046F800480000009A99214240F00F400D00000048
:0C4708000080000000093D00000040019E
:04000003000000D524
:00000001FF
